{
  "contractName": "Todo",
  "abi": [
    {
      "constant": true,
      "inputs": [],
      "name": "taskCount",
      "outputs": [
        {
          "name": "",
          "type": "uint256"
        }
      ],
      "payable": false,
      "stateMutability": "view",
      "type": "function",
      "signature": "0xb6cb58a5"
    }
  ],
  "bytecode": "0x608060405260008055348015601357600080fd5b506099806100226000396000f3fe608060405260043610603e5763ffffffff7c0100000000000000000000000000000000000000000000000000000000600035041663b6cb58a581146043575b600080fd5b348015604e57600080fd5b5060556067565b60408051918252519081900360200190f35b6000548156fea165627a7a72305820f52527b1bd8ebde63a81db5786c5cfc539251456e5e231f7fb3ecd5689dc564c0029",
  "source": "pragma solidity ^0.5.0;\r\n\r\ncontract Todo {\r\n//state variable, written in the blockchain\r\n// public keyword allows to read the value\r\nuint public taskCount = 0;\r\n\r\n}\r\n\r\n\r\n\r\n// prereq.  node, ganache(from truffle), metamask\r\n// npm install -g truffle@5.0.2\r\n// if getting a \"Keccak bindings compilation fail. Pure JS implementation will be used.\"\r\n// npm install -g truffle --unsafe-perm\r\n// npm install --global windows-build-tools\r\n// truffle init ( create truf project)\r\n// package.json\r\n// npm init\r\n// update truffle-config.js\r\n// truffle migrate\r\n",
  "sourcePath": "C:/Users/sstad/Desktop/Solidity/Projects/todo/contracts/Todo.sol",
  "compiler": {
    "name": "solc",
    "version": "0.5.0+commit.1d4f565a.Emscripten.clang"
  },
  "schemaVersion": "3.0.1",
  "updatedAt": "2019-07-04T20:38:39.010Z",
  "devdoc": {
    "methods": {}
  },
  "userdoc": {
    "methods": {}
  }
}